:1000000018C02AC029C028C027C026C025C024C0C7
:1000100023C022C021C020C01FC01EC01DC03AC0C6
:100020003CC03EC040C042C044C046C048C04AC0B8
:100030004CC011241FBECFE5D2E0DEBFCDBF10E023
:10004000A0E6B0E0E4ECF1E002C005900D92A0362D
:10005000B107D9F740D0B4C0D3CFC19848E050E041
:10006000C098C29828B3982F991F9927991F990F64
:10007000990F922B98BB880FC09A4150510981F774
:10008000C19A089590E08A30910510F5FC01E15F76
:10009000FF4F09948EE7E1DF089582E1DEDF0895E6
:1000A0008CEBDBDF089586EBD8DF089582EDD5DF9A
:1000B000089586EED2DF08958EEECFDF089582E3B5
:1000C000CCDF08958EEFC9DF089586EFC6DF08956F
:1000D00085E0C3DF089517BAB89AB99ABA9A80E052
:1000E000BCDF80E0CFDF2FEF84E39CE02150804035
:1000F0009040E1F700C0000081E0C4DF2FEF84E30F
:100100009CE0215080409040E1F700C0000082E078
:10011000B9DF2FEF84E39CE0215080409040E1F76D
:1001200000C0000083E0AEDF2FEF84E39CE02150AD
:1001300080409040E1F700C0000084E0A3DF2FEF93
:1001400084E39CE0215080409040E1F700C0000033
:1001500085E098DF2FEF84E39CE0215080409040C1
:10016000E1F700C0000086E08DDF2FEF84E39CE024
:10017000215080409040E1F700C0000087E082DF1E
:100180002FEF84E39CE0215080409040E1F700C0D5
:10019000000088E077DF2FEF84E39CE0215080406F
:1001A0009040E1F700C0000089E06CDF2FEF84E3AE
:1001B0009CE0215080409040E1F700C0000091CFCA
:0401C000F894FFCFE1
:00000001FF
